:020000040800F2
:1000000000500020B1850008635900086F590008AE
:10001000755900087B59000881590008000000004C
:1000200000000000000000000000000087590008E8
:1000300093590008000000009F590008AB590008C0
:10004000F9850008F9850008F9850008F985000898
:10005000F9850008F9850008F9850008F985000888
:10006000F9850008F9850008F9850008F985000878
:10007000F9850008F9850008FD590008E5590008D0
:10008000F9850008F9850008F9850008F985000858
:10009000BD590008F9850008F9850008F9850008B0
:1000A000F9850008F9850008F9850008F985000838
:1000B000F9850008F9850008D1590008F98500087C
:1000C000F9850008F9850008F9850008F985000818
:1000D000F9850008155A0008F9850008F985000817
:1000E000295A0008F9850008F98500080000000079
:1000F0000000000000000000000000000000000000
:0C01000000000000000000005FF808F1A3
:10010C000348044B834202D0034B03B1184770479A
:10011C00240800202408002000000000054806499F
:10012C00091A891001EBD171491002D0034B03B1AC
:10013C001847704724080020240800200000000005
:10014C0010B5064C237843B9FFF7DAFF044B13B113
:10015C000448AFF300800123237010BD2408002055
:10016C00000000001086000808B5044B1BB10449C0
:10017C000448AFF30080BDE80840CFE70000000062
:10018C002808002010860008002301461A4618464D
:10019C0000F088B838B50A4C0A4D641BA4100AD07C
:1001AC0004F18043013B05EB8305013C55F8043910
:1001BC009847002CF9D1BDE8384008F029BA00BFA7
:1001CC003C8700083887000870B50D4E0D4D761B26
:1001DC00B61006D00024013455F8043B9847A642CB
:1001EC00F9D1094E094D08F00DFA761BB61006D060
:1001FC000024013455F8043B9847A642F9D170BD50
:10020C0030870008308700083887000830870008DE
:10021C00F0B4860743D0541E002A3ED0CAB203461F
:10022C0002E014F1FF3438D303F8012B9D07F8D109
:10023C00032C2BD9CDB245EA05250F2C45EA0545F3
:10024C0016D9A4F110073F0903F1200606EB071697
:10025C0003F1100242E9045542E902551032B24250
:10026C00F8D104F00F040137032C03EB07130DD95D
:10027C001E462246043A032A46F8045BFAD8221F8B
:10028C0022F003020432134404F003042CB1C9B26B
:10029C001C4403F8011B9C42FBD1F0BC7047144674
:1002AC000346C5E7F0B4174C2568D5F848410CB3A4
:1002BC0065681F2D23DC38B900206B1C0235636088
:1002CC0044F82510F0BC7047012604EB850CCCF8E3
:1002DC008820D4F8887106FA05F217430228C4F86E
:1002EC008871CCF80831E7D1D4F88C311A43C4F8B2
:1002FC008C21E1E705F5A674C5F84841D8E74FF025
:10030C00FF30DFE7F486000880B584B000AFF860FA
:10031C00B9601346FB71FB68002B01D102231AE074
:10032C00FB68D3F81432002B03D0FB680022C3F80F
:10033C001422BB68002B03D0FB68BA68C3F81022E8
:10034C00FB68012283F8FC21FB68FA791A70F868C3
:10035C0000F0DAFF002318461037BD4680BD80B48C
:10036C0085B000AF786039600023FB733B68002BCD
:10037C0006D07B683A68C3F814220023FB7301E0B3
:10038C000223FB73FB7B18461437BD4680BC7047B9
:10039C0080B582B000AF7860786801F00FF8002368
:1003AC0018460837BD4680BD80B483B000AF786076
:1003BC00002318460C37BD4680BC704780B584B00E
:1003CC0000AF78600B46FB700223FB737B68D3F89D
:1003DC001432002B0CD07B68D3F814321B68FA78DB
:1003EC001146786898470346002B01D10023FB7314
:1003FC00FB7B18461037BD4680BD80B582B000AF80
:10040C0078600B46FB707B68D3F814325B68FA7823
:10041C00114678689847002318460837BD4680BDBA
:10042C0080B584B000AF786039600023FB737B68C3
:10043C0003F502733968184603F095FA7B680122BC
:10044C00C3F8F4217B68B3F80E321A467B68C3F804
:10045C00F8217B6893F808325B09DBB203F00303E5
:10046C00FB73FB7B002B2ED17B6893F8083203F0D7
:10047C001F03012B0BD0022B11D0002B17D17B6843
:10048C0003F502731946786802F0B8FE57E07B68F2
:10049C0003F502731946786802F000FF4FE07B68A1
:1004AC0003F502731946786802F02BFF47E07B686E
:1004BC0093F8083223F07F03DBB21946786801F019
:1004CC0023F800BF3BE0FB7B012B2ED17B6893F81C
:1004DC00083203F01F03012B0BD0022B11D0002B81
:1004EC0017D17B6803F502731946786803F0E2FABA
:1004FC0025E07B6803F502731946786803F0E6FA89
:10050C001DE07B6803F502731946786803F06AFBFB
:10051C0015E07B6893F8083223F07F03DBB21946B1
:10052C00786800F0F1FF00BF09E07B6893F80832AF
:10053C0023F07F03DBB21946786800F0E5FF002357
:10054C0018461037BD4680BD80B586B000AFF86048
:10055C000B467A60FB72FB7A002B38D1FB6803F5F3
:10056C0082737B61FB68D3F8F431032B42D17B6936
:10057C009A687B69DB689A4214D97B699A687B69B3
:10058C00DB68D21A7B699A607B69DA687B699B6845
:10059C00934228BF13469BB21A467968F86801F05B
:1005AC005BF927E0FB68D3F814321B69002B0AD0E7
:1005BC00FB6893F8FC31032B05D1FB68D3F814329C
:1005CC001B69F8689847F86801F058F912E0FB6865
:1005DC00D3F814329B69002B0CD0FB6893F8FC31D8
:1005EC00032B07D1FB68D3F814329B69FA7A1146B6
:1005FC00F8689847002318461837BD4680BD80B56B
:10060C0086B000AFF8600B467A60FB72FB7A002B69
:10061C006CD1FB6814337B61FB68D3F8F431022B8B
:10062C0057D17B699A687B69DB689A4215D97B69DB
:10063C009A687B69DB68D21A7B699A607B699B68D4
:10064C009BB21A467968F86801F0D6F800230022AC
:10065C000021F86801F05AF83BE07B695B687A6925
:10066C00D268B3FBF2F102FB01F29B1A002B1CD1F6
:10067C007B695A687B69DB689A4216D37B695A6836
:10068C00FB68D3F8F8319A420FD200220021F868A7
:10069C0001F0B2F8FB680022C3F8F8210023002215
:1006AC000021F86801F032F813E0FB68D3F814323B
:1006BC00DB68002B0AD0FB6893F8FC31032B05D1C7
:1006CC00FB68D3F81432DB68F8689847F86801F0D7
:1006DC00E8F8FB6893F80032012B1AD1F868FFF7A1
:1006EC0063FEFB68002283F8002212E0FB68D3F85B
:1006FC0014325B69002B0CD0FB6893F8FC31032B94
:10070C0007D1FB68D3F814325B69FA7A1146F868A2
:10071C009847002318461837BD4680BD80B582B077
:10072C0000AF7860402300220021786800F078FE4A
:10073C007B684022C3F81021402300228021786876
:10074C0000F06EFE7B6840221A627B68012283F8FF
:10075C00FC217B68D3F81832002B09D07B68D3F8C6
:10076C0014325B687A685268D2B21146786898473E
:10077C00002318460837BD4680BD80B483B000AF57
:10078C0078600B46FB707B68FA781A740023184665
:10079C000C37BD4680BC704780B483B000AF786026
:1007AC007B6893F8FC217B6883F8FD217B6804222D
:1007BC0083F8FC21002318460C37BD4680BC7047DB
:1007CC0080B483B000AF78607B6893F8FD217B68C0
:1007DC0083F8FC21002318460C37BD4680BC7047BB
:1007EC0080B582B000AF78607B6893F8FC31032B46
:1007FC000BD17B68D3F81432DB69002B05D07B68F6
:10080C00D3F81432DB697868984700231846083708
:10081C00BD4680BD80B582B000AF78607B68002B90
:10082C0001D101231DE07B6893F83D30DBB2002B36
:10083C0006D17B68002283F83C20786801F092F89E
:10084C007B68022283F83D207B681A687B6804333E
:10085C001946104600F070FA7B68012283F83D209F
:10086C00002318460837BD4680BD000080B582B015
:10087C0000AF786039607B681B68012239681846C4
:10088C0000F060FC7B681B680B4A934207D17B68C5
:10089C001B685A6C7B681B6842F400425A647B6884
:1008AC001B681A687B681B6842F001021A600023FF
:1008BC0018460837BD4680BD002C014080B582B07B
:1008CC0000AF786039607B681B6800223968184675
:1008DC0000F038FC7B681B681D4A934217D17B687B
:1008EC001B681A6A41F211131340002B0FD17B685D
:1008FC001B681A6A40F244431340002B07D17B68F3
:10090C001B685A6C7B681B6822F400425A647B6833
:10091C001B681A6A41F211131340002B0FD17B682C
:10092C001B681A6A40F244431340002B07D17B68C2
:10093C001B681A687B681B6822F001021A607B68CE
:10094C00012283F83D20002318460837BD4680BDA0
:10095C00002C014080B582B000AF78607B681B68CA
:10096C001B6903F00203022B22D17B681B68DB6836
:10097C0003F00203022B1BD17B681B686FF0020291
:10098C001A617B6801221A777B681B689B6903F0EC
:10099C000303002B03D0786800F0B3F905E0786806
:1009AC0000F0A6F9786800F0B5F97B6800221A7798
:1009BC007B681B681B6903F00403042B22D17B6842
:1009CC001B68DB6803F00403042B1BD17B681B68DA
:1009DC006FF004021A617B6802221A777B681B682D
:1009EC009B6903F44073002B03D0786800F089F9FD
:1009FC0005E0786800F07CF9786800F08BF97B688A
:100A0C0000221A777B681B681B6903F00803082B0C
:100A1C0022D17B681B68DB6803F00803082B1BD111
:100A2C007B681B686FF008021A617B6804221A77D6
:100A3C007B681B68DB6903F00303002B03D0786829
:100A4C0000F05FF905E0786800F052F9786800F082
:100A5C0061F97B6800221A777B681B681B6903F0BD
:100A6C001003102B22D17B681B68DB6803F010038A
:100A7C00102B1BD17B681B686FF010021A617B680E
:100A8C0008221A777B681B68DB6903F44073002B20
:100A9C0003D0786800F035F905E0786800F028F9A3
:100AAC00786800F037F97B6800221A777B681B683E
:100ABC001B6903F00103012B0ED17B681B68DB68FB
:100ACC0003F00103012B07D17B681B686FF0010257
:100ADC001A61786800F074FF7B681B681B6903F06F
:100AEC008003802B0ED17B681B68DB6803F08003CE
:100AFC00802B07D17B681B686FF080021A617868C5
:100B0C0003F09BF87B681B681B6903F04003402BC8
:100B1C000ED17B681B68DB6803F04003402B07D1C8
:100B2C007B681B686FF040021A61786800F0FBF874
:100B3C007B681B681B6903F02003202B0ED17B689C
:100B4C001B68DB6803F02003202B07D17B681B6834
:100B5C006FF020021A61786803F066F800BF08375E
:100B6C00BD4680BD80B584B000AFF860B9607A60D6
:100B7C00FB6893F83C30012B01D10223B4E0FB68F5
:100B8C00012283F83C20FB68022283F83D207B681D
:100B9C000C2B00F29F8001A252F823F0DD0B000811
:100BAC00E10C0008E10C0008E10C00081D0C000829
:100BBC00E10C0008E10C0008E10C00085F0C0008D7
:100BCC00E10C0008E10C0008E10C00089F0C000887
:100BDC00FB681B68B968184600F014F9FB681B68C1
:100BEC009A69FB681B6842F008029A61FB681B68F3
:100BFC009A69FB681B6822F004029A61FB681B6807
:100C0C009969BB681A69FB681B680A439A6162E0C0
:100C1C00FB681B68B968184600F060F9FB681B6834
:100C2C009A69FB681B6842F400629A61FB681B6856
:100C3C009A69FB681B6822F480629A61FB681B68E6
:100C4C009969BB681B691A02FB681B680A439A61A5
:100C5C0041E0FB681B68B968184600F0AFF9FB6807
:100C6C001B68DA69FB681B6842F00802DA61FB68F2
:100C7C001B68DA69FB681B6822F00402DA61FB6806
:100C8C001B68D969BB681A69FB681B680A43DA617F
:100C9C0021E0FB681B68B968184600F0FFF9FB6897
:100CAC001B68DA69FB681B6842F40062DA61FB6856
:100CBC001B68DA69FB681B6822F48062DA61FB68E6
:100CCC001B68D969BB681B691A02FB681B680A435D
:100CDC00DA6100E000BFFB68012283F83D20FB686D
:100CEC00002283F83C20002318461037BD4680BDF7
:100CFC0080B483B000AF786000BF0C37BD4680BCB9
:100D0C00704780B483B000AF786000BF0C37BD462D
:100D1C0080BC704780B483B000AF786000BF0C37E4
:100D2C00BD4680BC704780B483B000AF786000BF14
:100D3C000C37BD4680BC704780B485B000AF78607E
:100D4C0039600023FB607B681B68FB607B682A4A68
:100D5C0093420BD07B68B3F1804F07D07B68274A56
:100D6C00934203D07B68264A934208D1FB6823F058
:100D7C007003FB603B685B68FA681343FB607B683D
:100D8C001D4A93420BD07B68B3F1804F07D07B6830
:100D9C001A4A934203D07B68194A934208D1FB68E4
:100DAC0023F44073FB603B68DB68FA681343FB6019
:100DBC00FB6823F08003FB603B685B69FA681343B4
:100DCC00FB607B68FA681A603B689A687B68DA6239
:100DDC003B681A687B689A627B68074A934203D126
:100DEC003B681A697B681A637B6801225A6100BFF1
:100DFC001437BD4680BC7047002C014000040040F5
:100E0C000008004080B487B000AF786039600023E0
:100E1C00FB6000237B6100233B617B681B6A23F032
:100E2C0001027B681A627B681B6A7B617B685B686A
:100E3C003B617B689B69FB60FB6823F07003FB6084
:100E4C00FB6823F00303FB603B681B68FA681343E1
:100E5C00FB607B6923F002037B613B689B687A69CA
:100E6C0013437B617B681C4A93420CD17B6923F052
:100E7C0008037B613B68DB687A6913437B617B69A0
:100E8C0023F004037B617B68134A934211D13B69C5
:100E9C0023F480733B613B6923F400733B613B6833
:100EAC005B693A6913433B613B689B693A6913433D
:100EBC003B617B683A695A607B68FA689A613B6867
:100ECC005A687B685A637B687A691A6200BF1C3760
:100EDC00BD4680BC704700BF002C014080B487B079
:100EEC0000AF786039600023FB6000237B61002336
:100EFC003B617B681B6A23F010027B681A627B687B
:100F0C001B6A7B617B685B683B617B689B69FB60F0
:100F1C00FB6823F4E043FB60FB6823F44073FB6045
:100F2C003B681B681B02FA681343FB607B6923F068
:100F3C0020037B613B689B681B017A6913437B61CF
:100F4C007B681D4A93420DD17B6923F080037B6142
:100F5C003B68DB681B017A6913437B617B6923F077
:100F6C0040037B617B68144A934213D13B6923F4A1
:100F7C0080633B613B6923F400633B613B685B69C5
:100F8C009B003A6913433B613B689B699B003A6940
:100F9C0013433B617B683A695A607B68FA689A61D3
:100FAC003B685A687B689A637B687A691A6200BFEF
:100FBC001C37BD4680BC7047002C014080B487B004
:100FCC0000AF786039600023FB6000237B61002355
:100FDC003B617B681B6A23F480727B681A627B68B6
:100FEC001B6A7B617B685B683B617B68DB69FB60D0
:100FFC00FB6823F07003FB60FB6823F00303FB60CA
:10100C003B681B68FA681343FB607B6923F400732D
:10101C007B613B689B681B027A6913437B617B682D
:10102C001D4A93420DD17B6923F400637B613B68BD
:10103C00DB681B027A6913437B617B6923F4806351
:10104C007B617B68144A934213D13B6923F4805330
:10105C003B613B6923F400533B613B685B691B01BB
:10106C003A6913433B613B689B691B013A69134323
:10107C003B617B683A695A607B68FA68DA613B6865
:10108C005A687B68DA637B687A691A6200BF1C371E
:10109C00BD4680BC704700BF002C014080B487B0B7
:1010AC0000AF7860396000233B610023FB600023B4
:1010BC007B617B681B6A23F480527B681A627B68B5
:1010CC001B6AFB607B685B687B617B68DB693B61EF
:1010DC003B6923F4E0433B613B6923F440733B6180
:1010EC003B681B681B023A6913433B61FB6823F4A2
:1010FC000053FB603B689B681B03FA681343FB605F
:10110C007B680F4A934209D17B6923F480437B614E
:10111C003B685B699B017A6913437B617B687A69E5
:10112C005A607B683A69DA613B685A687B681A6472
:10113C007B68FA681A6200BF1C37BD4680BC7047DA
:10114C00002C014080B487B000AFF860B9607A60C1
:10115C0000237B610122BB6802FA03F37B61FB680D
:10116C001A6A7B69DB431A40FB681A62FB681A6ACD
:10117C007968BB6801FA03F31A43FB681A6200BF73
:10118C001C37BD4680BC704780B584B000AF78601A
:10119C007B681B680D4A934213D10D4BDB690C4ADB
:1011AC0043F40003D3610A4BDB6903F40003FB60D7
:1011BC00FB6800220021142003F01FFF142003F011
:1011CC0038FF00BF1037BD4680BD00BF005C00403B
:1011DC000010024080B582B000AF78607B68D3F815
:1011EC005C247B6803F22C4319461046FFF718F970
:1011FC0000BF0837BD4680BD80B582B000AF7860B7
:10120C000B46FB707B68D3F85C04FB787A685B0157
:10121C00134403F50F731A68FB781946FFF794F91A
:10122C0000BF0837BD4680BD80B582B000AF786086
:10123C000B46FB707B68D3F85C04FB787A685B0127
:10124C0013443C331A68FB781946FFF7D8F900BFF2
:10125C000837BD4680BD80B582B000AF78607B6832
:10126C00D3F85C341846FFF7BBFA00BF0837BD460D
:10127C0080BD80B584B000AF78600123FB737B68C0
:10128C009B68022B02D10123FB7302E00123FB7349
:10129C0000BF7B68D3F85C34FA7B11461846FFF725
:1012AC006CFA7B68D3F85C341846FFF737FA00BF4A
:1012BC001037BD4680BD000080B582B000AF7860AD
:1012CC007B68D3F85C341846FFF766FA7B689B6939
:1012DC00002B05D0044B1B69034A43F00603136132
:1012EC0000BF0837BD4680BD00ED00E080B582B080
:1012FC0000AF78607B68D3F85C341846FFF760FA6F
:10130C0000BF0837BD4680BD80B582B000AF7860A5
:10131C00274A7B68C2F85C347B68254AC3F82022D4
:10132C00234B244A1A60224B08225A60204B02227B
:10133C009A601F4B0022DA601D4B00229A611C4BF5
:10134C000022DA611A4B00221A62194800F0CCFC18
:10135C000346002B04D04FF48D71174800F0BEFCEF
:10136C007B68D3F8200218230022002104F0B6FA7F
:10137C007B68D3F8200258230022802104F0AEFAB7
:10138C007B68D3F820024FF480730022012104F013
:10139C00A5FA7B68D3F820024FF4907300228121C8
:1013AC0004F09CFA002318460837BD4680BD00BFE8
:1013BC004C090020005C00402886000880B584B0F1
:1013CC0000AF78600023BB730023FB737B68D3F8FA
:1013DC002032184600F062FD0346BB73BB7B032B27
:1013EC0016D801A252F823F0051400080B140008BB
:1013FC0011140008171400080023FB730BE00223E0
:10140C00FB7308E00123FB7305E00223FB7302E08E
:10141C000223FB7300BFFB7B18461037BD4680BD13
:10142C0080B584B000AF7860084611461A46034672
:10143C00FB700B46BB7013463B800023BB73002331
:10144C00FB737B68D3F82002BB783A88F97800F0FC
:10145C0072FE0346BB73BB7B032B17D801A252F859
:10146C0023F000BF81140008871400088D140008B5
:10147C00931400080023FB730BE00223FB7308E0BA
:10148C000123FB7305E00223FB7302E00223FB73D1
:10149C0000BFFB7B18461037BD4680BD80B584B0BD
:1014AC0000AF78600B46FB700023BB730023FB730B
:1014BC007B68D3F82032FA781146184600F090FE7B
:1014CC000346BB73BB7B032B16D801A252F823F047
:1014DC00ED140008F3140008F9140008FF140008B8
:1014EC000023FB730BE00223FB7308E00123FB7367
:1014FC0005E00223FB7302E00223FB7300BFFB7BBE
:10150C0018461037BD4680BD80B584B000AF7860FA
:10151C000B46FB700023BB730023FB737B68D3F873
:10152C002032FA781146184600F017FF0346BB73B9
:10153C00BB7B032B16D801A252F823F059150008D7
:10154C005F150008651500086B1500080023FB7378
:10155C000BE00223FB7308E00123FB7305E002237D
:10156C00FB7302E00223FB7300BFFB7B18461037B2
:10157C00BD4680BD80B584B000AF78600B46FB7073
:10158C000023BB730023FB737B68D3F82032FA78FB
:10159C001146184600F036FF0346BB73BB7B032B8A
:1015AC0016D801A252F823F0C5150008CB15000877
:1015BC00D1150008D71500080023FB730BE002239C
:1015CC00FB7308E00123FB7305E00223FB7302E0CD
:1015DC000223FB7300BFFB7B18461037BD4680BD52
:1015EC0080B485B000AF78600B46FB707B68D3F895
:1015FC002032FB6097F90330002B08DAFB7803F0FC
:10160C007F03FA685B0113442A331B7808E0FB78EC
:10161C0003F07F03FA685B01134403F22A231B785F
:10162C0018461437BD4680BC7047000080B584B0A6
:10163C0000AF78600B46FB700023BB730023FB7379
:10164C007B68D3F82032FA781146184600F04EFD2C
:10165C000346BB73BB7B032B16D801A252F823F0B5
:10166C007D16000883160008891600088F160008DE
:10167C000023FB730BE00223FB7308E00123FB73D5
:10168C0005E00223FB7302E00223FB7300BFFB7B2C
:10169C0018461037BD4680BD80B586B000AFF860E7
:1016AC007A601A460B46FB7213463B810023BB75CE
:1016BC000023FB75FB68D3F820023B89F97A7A6822
:1016CC0000F010FE0346BB75BB7D032B16D801A2A0
:1016DC0052F823F0F1160008F7160008FD16000862
:1016EC00031700080023FB750BE00223FB7508E0D1
:1016FC000123FB7505E00223FB7502E00223FB7559
:10170C0000BFFB7D18461837BD4680BD80B586B03E
:10171C0000AFF8607A601A460B46FB7213463B81A9
:10172C000023BB750023FB75FB68D3F820023B89B3
:10173C00F97A7A6800F09AFD0346BB75BB7D032BE2
:10174C0016D801A252F823F0651700086B17000891
:10175C0071170008771700080023FB750BE00223B4
:10176C00FB7508E00123FB7505E00223FB7502E025
:10177C000223FB7500BFFB7D18461837BD4680BDA4
:10178C0080B483B000AF7860024B18460C37BD466E
:10179C0080BC70474008002080B483B000AF7860F4
:1017AC0000BF0C37BD4680BC704780B483B000AF1F
:1017BC0078600B46FB7000BF0C37BD4680BC704791
:1017CC0080B584B000AFF860B9601346FB80FB684D
:1017DC000222C3F8F421FA88FB689A61FA88FB6844
:1017EC00DA61FB88BA680021F868FFF755FF00231F
:1017FC0018461037BD4680BD80B584B000AFF86088
:10180C00B9601346FB80FB88BA680021F868FFF7C3
:10181C0043FF002318461037BD4680BD80B584B009
:10182C0000AFF860B9601346FB80FB680322C3F875
:10183C00F421FA88FB68C3F80821FA88FB68C3F81E
:10184C000C21FB88BA680021F868FFF75FFF0023C2
:10185C0018461037BD4680BD80B584B000AFF86027
:10186C00B9601346FB80FB88BA680021F868FFF763
:10187C004DFF002318461037BD4680BD80B582B0A1
:10188C0000AF78607B680422C3F8F42100230022A7
:10189C0000217868FFF700FF002318460837BD4683
:1018AC0080BD80B582B000AF78607B680522C3F83C
:1018BC00F4210023002200217868FFF727FF002382
:1018CC0018460837BD4680BD80B500AF214B224A73
:1018DC001A60204B00225A601E4B00229A601D4B4E
:1018EC004FF46162DA601B4B00221A61194B002223
:1018FC009A61184B00225A611648FEF78BFF03467B
:10190C00002B03D05E21154800F0E8F9144B60223F
:10191C001A60134B00229A60114B00221A61104B73
:10192C000022DA600E4B00229A610D4B00225A61A4
:10193C000B4B4FF4E1625A60002209490548FFF74E
:10194C0011F90346002B03D06E21044800F0C6F9B0
:10195C0000BF80BDEC0D002000040040388600085C
:10196C002C0E002080B588B000AF78607B681B68B7
:10197C00104A934219D1104BDB690F4A43F0020312
:10198C00D3610D4BDB6903F00203FB60FB680223A0
:10199C007B610123BB610323FB6140233B6107F1A6
:1019AC0010031946054801F083FA00BF2037BD46E5
:1019BC0080BD00BF00040040001002400008014040
:1019CC0080B483B000AF786000BF0C37BD4680BCDC
:1019DC007047000080B582B000AF234B9B69224A50
:1019EC0043F001039361204B9B6903F001037B607F
:1019FC007B68032003F0F6FA002200216FF00B0045
:101A0C0003F0FBFA002200216FF00A0003F0F5FA54
:101A1C00002200216FF0090003F0EFFA00220021F0
:101A2C006FF0040003F0E9FA002200216FF00300CC
:101A3C0003F0E3FA002200216FF0010003F0DDFA5D
:101A4C00002200214FF0FF3003F0D7FA074B5B6800
:101A5C00064A23F0E0635360044B044A5B6853600E
:101A6C0000BF0837BD4680BD001002400000014099
:101A7C0080B586B000AF786000233B610023FB602B
:101A8C007B681B6803F00103002B7DD00023FB75E2
:101A9C004F4BDB6903F08053002B0DD14C4BDB69B2
:101AAC004B4A43F08053D361494BDB6903F08053BD
:101ABC00BB60BB680123FB75464B1B6803F480734A
:101ACC00002B18D1434B1B68424A43F480731360BC
:101ADC0001F02EF9386108E001F02AF902463B6961
:101AEC00D31A642B01D903236DE03A4B1B6803F422
:101AFC008073002BF0D0364B1B6A03F44073FB60F1
:101B0C00FB68002B2ED07B685B6803F44073FA688B
:101B1C009A4227D02E4B1B6A23F44073FB602E4B4A
:101B2C0001221A602C4B00221A60294AFB681362AE
:101B3C00FB6803F00103002B14D001F0F9F83861B5
:101B4C000AE001F0F5F802463B69D31A41F28832FB
:101B5C00934201D9032336E01D4B1B6A03F00203A9
:101B6C00002BEED01A4B1B6A23F440727B685B6827
:101B7C00174913430B62FB7D012B05D1144BDB6919
:101B8C00134A23F08053D3617B681B6803F0020374
:101B9C00002B08D00E4B5B6823F440427B689B689B
:101BAC000B4913434B607B681B6803F01003002B3D
:101BBC0008D0074B5B6823F480027B68DB68044920
:101BCC0013434B60002318461837BD4680BD00BF39
:101BDC0000100240007000404004424280B500AF4B
:101BEC0001F066F800F014F801F0ACF802F006F819
:101BFC0006F012FCFFF768FE04F068FA04F092F9A4
:101C0C00FCE780B500AF04F009FA00BF80BD00000E
:101C1C0080B594B000AF0123BB624FF48033FB62FC
:101C2C0000233B630123BB6302237B644FF48033AB
:101C3C00BB644FF4E013FB6407F12803184603F070
:101C4C0043FA0346002B03D09B21224800F046F8B0
:101C5C000F237B610223BB610023FB614FF4806384
:101C6C003B6200237B6207F114030221184603F048
:101C7C008FFC0346002B03D0A921164800F02EF848
:101C8C0012237B6000233B614FF40043FB603B1D40
:101C9C001846FFF7EDFE0346002B03D0B1210D488B
:101CAC0000F01CF803F0CAFD02460B4BA3FB022309
:101CBC009B09184603F0D9F9042003F0E3F900223C
:101CCC0000214FF0FF3003F098F900BF5037BD46AC
:101CDC0080BD00BF44860008D34D621080B483B031
:101CEC0000AF78603960FEE7F0B58BB006AF786076
:101CFC000023FB607B68002B01D10123CAE07B68C9
:101D0C0093F82934DBB2002B06D17B68002283F8D0
:101D1C0028247868FFF738FA7B68032283F8292493
:101D2C007B681B68184601F0BBFF7B681B683B6037
:101D3C007E686D4606F110040FCC0FC523682B602E
:101D4C00331D0ECB386801F081FF7B681B680021C6
:101D5C00184601F0C1FF0023FB6037E07A68FB688E
:101D6C005B011344293301221A70FB68D9B27A68DB
:101D7C00FB685B01134428330A461A70FB6899B25E
:101D8C007A68FB685B01134434330A461A807A681C
:101D9C00FB685B0113442B3300221A707A68FB68D2
:101DAC005B011344383300221A607A68FB685B01CC
:101DBC0013443C3300221A607A68FB6802335B01DF
:101DCC00134400221A60FB680133FB60FB680E2B86
:101DDC00C4D90023FB603CE07A68FB685B011344C8
:101DEC0003F2292300221A70FB68D9B27A68FB68C7
:101DFC005B01134403F50A730A461A70FB6899B227
:101E0C007A68FB685B01134434330A461A807A689B
:101E1C00FB685B01134403F22B2300221A707A68CF
:101E2C00FB685B01134403F50E7300221A607A6899
:101E3C00FB685B01134403F50F7300221A607A6888
:101E4C00FB6812335B01134400221A60FB680133F8
:101E5C00FB60FB680E2BBFD97B681B683B607E6800
:101E6C006D4606F110040FCC0FC523682B60331D93
:101E7C000ECB386801F03CFF7B68002283F82420ED
:101E8C007B68012283F829247B681B68184602F0C2
:101E9C0026FF002318461437BD46F0BD80B582B02E
:101EAC0000AF78607B6893F82834012B01D10223B2
:101EBC0016E07B68012283F8282401217868FFF75B
:101ECC0074FC7B681B68184602F0FFFE7B681B687D
:101EDC00184601F0CBFE7B68002283F828240023EF
:101EEC0018460837BD4680BD80B582B000AF78601B
:101EFC007B681B68184602F0FCFE034603F40043A3
:101F0C00B3F5004F02D1786800F0C4FA7B681B6807
:101F1C00184602F0EEFE034603F48063B3F5806FBF
:101F2C0012D17B681B68B3F844309AB27B681B688B
:101F3C0022F4806292B2A3F844207868FFF799F9F2
:101F4C000021786800F0D2F87B681B68184602F014
:101F5C00D0FE034603F48043B3F5804F0BD17B686E
:101F6C001B68B3F844309AB27B681B6822F4804239
:101F7C0092B2A3F844207B681B68184602F0B9FEA5
:101F8C00034603F40053B3F5005F0BD17B681B6869
:101F9C00B3F844309AB27B681B6822F4005292B2B8
:101FAC00A3F844207B681B68184602F0A2FE034687
:101FBC0003F48053B3F5805F26D17B681B68B3F8BC
:101FCC0040309AB27B681B6822F0040292B2A3F8EC
:101FDC0040207B681B68B3F840309AB27B681B6862
:101FEC0022F0080292B2A3F840207868FFF77EF93D
:101FFC007B681B68B3F844309AB27B681B6822F488
:10200C00805292B2A3F844207B681B68184602F0F9
:10201C0070FE034603F40063B3F5006F31D17B68A7
:10202C001B68B3F840309AB27B681B6842F0080218
:10203C0092B2A3F840207B681B68B3F844309AB284
:10204C007B681B6822F4006292B2A3F844207B6880
:10205C001B68B3F840309AB27B681B6842F00402EC
:10206C0092B2A3F840207B681B68184602F041FE30
:10207C00034603F48053B3F5805F02D07868FFF712
:10208C001BF97B681B68184602F033FE034603F409
:10209C000073B3F5007F0ED17B681B68B3F8443036
:1020AC009AB27B681B6822F4007292B2A3F84420A7
:1020BC007868FFF7D0F87B681B68184602F019FEA9
:1020CC00034603F48073B3F5807F0BD17B681B68E8
:1020DC00B3F844309AB27B681B6822F4807292B2D7
:1020EC00A3F8442000BF0837BD4680BD80B582B040
:1020FC0000AF78600B46FB707B6893F82834012B9B
:10210C0001D1022313E07B68012283F828247B6829
:10211C00FA7883F824207B681B68FA7811461846F5
:10212C0002F0C0FD7B68002283F8282400231846A7
:10213C000837BD4680BD80B584B000AF78600846D6
:10214C0011461A460346FB700B463B801346BB7088
:10215C000023FB720023FB6097F90330002B08DA95
:10216C00FB7803F07F035B0128337A681344FB6030
:10217C0008E0FB7803F07F035B0103F50A737A68D0
:10218C001344FB60FB7803F07F03DAB2FB681A7030
:10219C0097F90330DBB2DB09DBB21A46FB685A70E5
:1021AC003A88FB681A61FB68BA78DA707B6893F836
:1021BC002834012B01D102230EE07B68012283F825
:1021CC0028247B681B68F968184601F0B5FD7B680C
:1021DC00002283F82824FB7A18461037BD4680BDB0
:1021EC0080B584B000AF78600B46FB700023FB60B9
:1021FC0097F90330002B08DAFB7803F07F035B01BF
:10220C0028337A681344FB6008E0FB7803F07F0303
:10221C005B0103F50A737A681344FB60FB7803F0E7
:10222C007F03DAB2FB681A7097F90330DBB2DB0973
:10223C00DBB21A46FB685A707B6893F82834012B82
:10224C0001D102230EE07B68012283F828247B68ED
:10225C001B68F968184602F031F87B68002283F895
:10226C002824002318461037BD4680BD80B586B0A3
:10227C0000AFF8607A603B600B46FB7200237B6119
:10228C00FB7A03F07F035B0103F50A73FA681344CE
:10229C007B617B697A685A617B693A689A617B6970
:1022AC000022DA617B6900225A70FB7A03F07F030B
:1022BC00DAB27B691A70FB7A03F07F03002B06D12C
:1022CC00FB681B687969184602F080F905E0FB6829
:1022DC001B687969184602F079F9002318461837FB
:1022EC00BD4680BD80B586B000AFF8607A603B60BB
:1022FC000B46FB7200237B61FB7A03F07F035B01CF
:10230C002833FA6813447B617B697A685A617B696C
:10231C003A689A617B690022DA617B6901225A7002
:10232C00FB7A03F07F03DAB27B691A70FB7A03F055
:10233C007F03002B06D1FB681B687969184602F0F5
:10234C0045F905E0FB681B687969184602F03EF90F
:10235C00002318461837BD4680BD80B584B000AF49
:10236C0078600B46FB700023FB6097F90330002B61
:10237C0008DAFB7803F07F035B0128337A68134497
:10238C00FB6006E0FB785B0103F50A737A68134483
:10239C00FB60FB6801229A70FB7803F07F03DAB2D2
:1023AC00FB681A7097F90330DBB2DB09DBB21A4613
:1023BC00FB685A707B6893F82834012B01D10223F7
:1023CC001CE07B68012283F828247B681B68F96871
:1023DC00184602F07DFBFB7803F07F03002B08D13D
:1023EC007B681A687B6803F22C431946104602F08E
:1023FC0091FC7B68002283F82824002318461037B0
:10240C00BD4680BD80B584B000AF78600B46FB70D4
:10241C000023FB6097F90330002B08DAFB7803F0FC
:10242C007F035B0128337A681344FB6006E0FB787A
:10243C005B0103F50A737A681344FB60FB680022A6
:10244C009A70FB7803F07F03DAB2FB681A7097F985
:10245C000330DBB2DB09DBB21A46FB685A707B68CF
:10246C0093F82834012B01D102230EE07B68012262
:10247C0083F828247B681B68F968184602F088FBEF
:10248C007B68002283F82824002318461037BD46A9
:10249C0080BD000090B589B000AF78600023FB616F
:1024AC0000237B8300237B760023FB810023BB81ED
:1024BC0008E3FB899BB2DBB203F00F037B767B7ED8
:1024CC00002B40F02A81FB899BB203F01003002BF8
:1024DC004DD17B681B681B889BB27A68126823F409
:1024EC00E14323F070039BB213807B682833FB61BC
:1024FC007B681B68B3F850309BB21A46FB691B789B
:10250C00DB00134402335B007A681268134403F552
:10251C0080631B689BB2C3F30902FB69DA61FB6938
:10252C005A69FB69DB691A44FB695A6100217868B6
:10253C00FEF77AFE7B6893F82430DBB2002B00F0B8
:10254C00C182FB699B69002B40F0BC827B6893F8CD
:10255C002430DBB263F07F03DAB27B681B6892B283
:10256C00A3F84C207B68002283F82420AAE27B6825
:10257C0003F50A73FB617B681B681B889BB2BB81EC
:10258C00BB899BB203F40063002B31D07B681B68C2
:10259C00B3F850309BB21A46FB691B78DB0013442E
:1025AC0006335B007A681268134403F580631B687A
:1025BC009BB2C3F30902FB69DA617B6818687B681C
:1025CC0003F22C41FB699A88FB69DB699BB202F030
:1025DC00F2FB7B681B681B8899B27B681A6840F613
:1025EC008F730B409BB213807868FEF7F3FD69E2A2
:1025FC00BB899BB21BB2002B80F264827B681B6888
:10260C001B8899B27B681A6840F68F730B409BB29B
:10261C0013807B681B68B3F850309BB21A46FB6979
:10262C001B78DB00134406335B007A681268134492
:10263C0003F580631B689BB2C3F30902FB69DA6183
:10264C00FB69DB69002B11D07B681868FB69596941
:10265C00FB699A88FB69DB699BB202F0ACFBFB69F6
:10266C005A69FB69DB691A44FB695A610021786875
:10267C00FEF7C2FD7B681B68B3F850309BB2063383
:10268C005B007A681268134403F580633B61FB6955
:10269C001B693E2B18D9FB691B695B09FB82FB6923
:1026AC001B6903F01F03002B02D1FB8A013BFB8249
:1026BC00FB8A9B029BB26FEA43436FEA53439BB284
:1026CC001A463B691A6012E0FB691B695B08FB82C6
:1026DC00FB691B6903F00103002B02D0FB8A013359
:1026EC00FB82FB8A9B029BB21A463B691A607B6891
:1026FC001B681B889BB223F4804323F070039CB2AD
:10270C0084F480539CB284F400539CB27B681A68A6
:10271C00984B23439BB21380D4E17B681B681A4609
:10272C007B7E9B0013441B889BB2BB81BB899BB2F5
:10273C001BB2002B80F2D0807B681B681A467B7E14
:10274C009B0013441B8899B27B681B681A467B7EDE
:10275C009B001A4440F68F730B409BB213807B7E18
:10276C005B0103F50A737A681344FB61FB699B7A7E
:10277C00002B22D17B681B68B3F850309BB21A46F1
:10278C00FB691B78DB00134406335B007A68126824
:10279C00134403F580631B689BB2C3F309037B836B
:1027AC007B8B002B73D07B681868FB695969FB69BC
:1027BC009A887B8B02F0FFFA69E07B681B681A46EB
:1027CC00FB691B789B0013441B889BB203F480436A
:1027DC00002B22D07B681B68B3F850309BB21A4692
:1027EC00FB691B78DB00134402335B007A681268C8
:1027FC00134403F580631B689BB2C3F309037B830B
:10280C007B8B002B2BD07B681868FB695969FB69A3
:10281C00DA887B8B02F0CFFA21E07B681B68B3F877
:10282C0050309BB21A46FB691B78DB00134406330D
:10283C005B007A681268134403F580631B689BB2D3
:10284C00C3F309037B837B8B002B08D07B68186850
:10285C00FB695969FB691A897B8B02F0ACFA7B68BE
:10286C001B681A46FB691B789B0013441B889AB2A1
:10287C0040F60F73134099B27B681B681A46FB69CC
:10288C001B789B001A443C4B0B439BB21380FB6997
:10289C00DA697B8B1A44FB69DA61FB695A697B8BB9
:1028AC001A44FB695A61FB699B69002B04D07A8B33
:1028BC00FB691B699A4206D2FB691B78194678683A
:1028CC00FEF79AFC08E0FB691978FB695A69FB6909
:1028DC009B697868FFF7CAFCBB899BB203F0800345
:1028EC00002B00F0EF807B7E5B0128337A68134469
:1028FC00FB617B681B681A467B7E9B0013441B881C
:10290C009BB27A68126811467A7E92000A4423F4CC
:10291C00E14323F070039BB21380FB699B7A002B7D
:10292C002CD17B681B68B3F850309BB21A46FB69FC
:10293C001B78DB00134402335B007A681268134483
:10294C0003F580631B689BB2C3F30902FB69DA6170
:10295C00FB69DB69002B00F083807B681868FB69DE
:10296C005969FB699A88FB69DB699BB202F0DDF956
:10297C0076E000BF8080FFFFC080FFFF7B681B6894
:10298C001A46FB691B789B0013441B889BB203F00F
:10299C004003002B26D07B681B68B3F850309BB2E9
:1029AC001A46FB691B78DB00134402335B007A6820
:1029BC001268134403F580631B689BB2C3F30902CE
:1029CC00FB69DA61FB69DB69002B31D07B68186825
:1029DC00FB695969FB69DA88FB69DB699BB202F018
:1029EC00A4F925E07B681B68B3F850309BB21A46FB
:1029FC00FB691B78DB00134406335B007A681268B2
:102A0C00134403F580631B689BB2C3F30902FB6993
:102A1C00DA61FB69DB69002B0AD07B681868FB69FB
:102A2C005969FB691A89FB69DB699BB202F07DF974
:102A3C007B681B681A46FB691B789B0013441B8838
:102A4C009AB240F60F73134099B27B681B681A4612
:102A5C00FB691B789B001A44224B0B439BB21380DF
:102A6C007B681B68B3F850309BB21A46FB691B7825
:102A7C00DB00134402335B007A681268134403F5DD
:102A8C0080631B689BB2C3F30902FB69DA61FB69C3
:102A9C005A69FB69DB691A44FB695A61FB699B69DA
:102AAC00002B06D1FB691B7819467868FEF7BCFB36
:102ABC0008E0FB691978FB695A69FB699B697868BE
:102ACC00FFF710FC7B681B68B3F844309BB21A46C6
:102ADC00FA811BB2002BFFF6ECAC0023184624370E
:102AEC00BD4690BD80C0FFFF80B483B000AF0346ED
:102AFC003960FB713B6812221A80034B18460C3765
:102B0C00BD4680BC704700BF4C04002080B483B02D
:102B1C0000AF03463960FB713B6804221A80034BFB
:102B2C0018460C37BD4680BC704700BF60040020BF
:102B3C0080B582B000AF03463960FB71FB79002B86
:102B4C0005D13A680749084800F05AFF04E03A6892
:102B5C000449054800F054FF024B18460837BD469F
:102B6C0080BD00BF480E00205086000880B582B0A2
:102B7C0000AF03463960FB713A680449044800F021
:102B8C003FFF024B18460837BD4680BD480E00205B
:102B9C006086000880B582B000AF03463960FB71D7
:102BAC00FB79002B05D13A680749084800F028FF4B
:102BBC0004E03A680449054800F022FF024B18462D
:102BCC000837BD4680BD00BF480E00207486000843
:102BDC0080B582B000AF03463960FB71FB79002BE6
:102BEC0005D13A680749084800F00AFF04E03A6842
:102BFC000449054800F004FF024B18460837BD464F
:102C0C0080BD00BF480E00208486000880B582B0CD
:102C1C0000AF03463960FB71FB79002B05D13A6894
:102C2C000749084800F0ECFE04E03A6804490548FE
:102C3C0000F0E6FE024B18460837BD4680BD00BFCB
:102C4C00480E00209086000880B400AF154B1B681E
:102C5C00144A43F001031360124B5A681149124B8A
:102C6C0013404B600F4B1B680E4A23F0847323F404
:102C7C00803313600B4B1B680A4A23F480231360C8
:102C8C00084B5B68074A23F4FE035360054B4FF473
:102C9C001F029A60054B4FF000629A6000BFBD4660
:102CAC0080BC7047001002400000FFF800ED00E00F
:102CBC0080B500AF084B1B68074A43F01003136044
:102CCC00032002F08FF9002000F008F8FEF782FED6
:102CDC000023184680BD00BF0020024080B582B0A2
:102CEC0000AF7860094B1B68094AA2FB03239B09C0
:102CFC00184602F0BAF9002279684FF0FF3002F062
:102D0C007CF9002318460837BD4680BD64040020BA
:102D1C00D34D621080B400AF044B1B680133034ADF
:102D2C00136000BFBD4680BC704700BF4810002038
:102D3C0080B400AF024B1B681846BD4680BC704780
:102D4C004810002080B588B000AF554B9B69544AA1
:102D5C0043F004039361524B9B6903F00403FB6043
:102D6C00FB684F4B9B694E4A43F0080393614C4BF5
:102D7C009B6903F00803BB60BB68494BDB69484A9D
:102D8C0043F48043D361464BDB6903F480437B609F
:102D9C007B6800220121434800F0FFF901233B61CD
:102DAC0001237B610223FB6107F1100319463D48A7
:102DBC0000F07EF802233B6100237B610123BB61A1
:102DCC0007F110031946374800F072F84FF400531E
:102DDC003B6102237B610323FB6107F1100319465E
:102DEC00314800F065F84FF480433B6100237B6170
:102DFC0007F1100319462C4800F05AF84FF4004321
:102E0C003B612A4B7B610023BB6107F11003194620
:102E1C00254800F04DF800220021282002F0EDF8A2
:102E2C00282002F006F9002204211E4800F0B5F912
:102E3C00002208211B4800F0B0F90C233B61012350
:102E4C007B610123FB6107F110031946154800F063
:102E5C002FF801222021134800F09FF900221021A5
:102E6C00104800F09AF930233B6101237B61022367
:102E7C00FB6107F1100319460A4800F019F8032307
:102E8C003B6100237B610123BB6107F110031946F1
:102E9C00054800F00DF800BF2037BD4680BD00BFCF
:102EAC000010024000080140000C0140000011100D
:102EBC0080B48BB000AF786039600023FB610023D5
:102ECC00BB6100237B6100233B6200233B61002339
:102EDC007B6227E101227B6A02FA03F3FB613B6808
:102EEC001B68FA691340BB61BA69FB699A4240F0EE
:102EFC0016813B685B68122B34D0122B0DD8022B39
:102F0C002BD0022B04D8002B31D0012B1CD048E045
:102F1C00032B43D0112B1BD043E0874A934226D07E
:102F2C00854A934206D8854A934220D0844A9342DC
:102F3C001DD036E0834A934219D0834A934216D06F
:102F4C00824A934213D02CE03B68DB683B6228E05A
:102F5C003B68DB6804333B6223E03B68DB68083387
:102F6C003B621EE03B68DB680C333B6219E03B685C
:102F7C009B68002B02D104233B6212E03B689B68E8
:102F8C00012B05D108233B627B68FA691A6108E0C2
:102F9C0008233B627B68FA695A6102E000233B62BA
:102FAC0000BFBB69FF2B01D87B6801E07B68043351
:102FBC00FB60BB69FF2B02D87B6A9B0002E07B6A3B
:102FCC00083B9B003B61FB681A680F213B6901FAC7
:102FDC0003F3DB431A40396A3B6901FA03F31A43E2
:102FEC00FB681A603B685B6803F08053002B00F0B1
:102FFC009680574B9B69564A43F001039361544B9F
:10300C009B6903F00103BB60BB68524A7B6A9B0857
:10301C00023352F823307B617B6A03F003039B007D
:10302C000F2202FA03F3DB437A6913407B617B685E
:10303C00494A934213D07B68484A93420DD07B682F
:10304C00474A934207D07B68464A934201D10323F7
:10305C0006E0042304E0022302E0012300E0002345
:10306C007A6A02F00302920093407A6913437B61FF
:10307C0038497B6A9B0802337A6941F823203B6804
:10308C005B6803F48033002B06D0374B1A68364943
:10309C00BB6913430B6006E0334B1A68BB69DB4317
:1030AC00314913400B603B685B6803F40033002B21
:1030BC0006D02D4B5A682C49BB6913434B6006E074
:1030CC00294B5A68BB69DB43274913404B603B686B
:1030DC005B6803F48013002B06D0234B9A682249BB
:1030EC00BB6913438B6006E01F4B9A68BB69DB43DB
:1030FC001D4913408B603B685B6803F40013002B85
:10310C0006D0194BDA681849BB691343CB6006E04B
:10311C00154BDA68BB69DB4313491340CB607B6A00
:10312C0001337B627B6A0F2B7FF6D4AE00BF2C374A
:10313C00BD4680BC704700BF00002110000011107C
:10314C00000012100000311000003210000022109C
:10315C00001002400000014000080140000C01403A
:10316C0000100140001401400004014080B485B0FF
:10317C0000AF78600B467B807B689A687B88134035
:10318C00002B02D00123FB7301E00023FB73FB7BBC
:10319C0018461437BD4680BC704780B483B000AF6E
:1031AC0078600B467B8013467B707B78002B03D0BA
:1031BC007A887B681A6103E07B881A047B681A6141
:1031CC0000BF0C37BD4680BC7047000080B582B094
:1031DC0000AF0346FB80084B5A69FB881340002B59
:1031EC0006D0054AFB885361FB88184605F0C8F9E0
:1031FC0000BF0837BD4680BD0004014080B584B0D7
:10320C0000AF786039600023FB733B685B78092B57
:10321C0039D801A252F823F075320008893200081F
:10322C00933200087F3200089332000857320008AE
:10323C004D320008933200086B32000861320008EE
:10324C003968786800F036F922E03968786800F05F
:10325C0025FA1DE03968786800F05EFA18E03968E4
:10326C00786800F0E1FA13E03968786800F00EFB3A
:10327C000EE03968786800F033FB09E0396878684B
:10328C0000F049FB04E03968786800F0A8FB00BF47
:10329C00FB7B18461037BD4680BD00BF80B584B09F
:1032AC0000AF786039600023FB737B6893F8FC31C6
:1032BC00032B1BD13B689B88DBB2012B11D87B689D
:1032CC00D3F814329B683968786898473B68DB8878
:1032DC00002B10D1FB7B002B0DD17868FEF7CEFABA
:1032EC0009E03968786800F07AFB04E0396878689E
:1032FC0000F075FB00E000BF002318461037BD46F8
:10330C0080BD80B584B000AF786039600023FB735A
:10331C003B689B88BB733B681B7803F06003202BD6
:10332C0008D17B68D3F814329B6839687868984761
:10333C000023BAE03B685B78012B39D0032B02D019
:10334C00002B6BD0B0E07B6893F8FC31022B02D0E1
:10335C00032B0CD025E0BB7B002B27D0BB7B802B19
:10336C0024D0BB7B19467868FEF7CEF81EE03B688C
:10337C005B88002B0AD1BB7B002B07D0BB7B802B3F
:10338C0004D0BB7B19467868FEF7BEF87B68D3F88F
:10339C0014329B683968786898477868FEF76EFA3B
:1033AC0005E03968786800F01AFB00E000BF7BE0AC
:1033BC007B6893F8FC31022B02D0032B0CD024E059
:1033CC00BB7B002B26D0BB7B802B23D0BB7B194631
:1033DC007868FEF799F81DE03B685B88002B1BD1E1
:1033EC00BB7B03F07F03002B0BD0BB7B19467868AB
:1033FC00FEF7C0F87B68D3F814329B68396878689C
:10340C0098477868FEF73AFA06E03968786800F071
:10341C00E6FA02E000BF47E000BF45E07B6893F8A6
:10342C00FC31022B02D0032B0BD036E0BB7B03F01C
:10343C007F03002B36D0BB7B19467868FEF764F807
:10344C0030E097F90E30002B08DABB7B03F07F03DA
:10345C0001331B017A681344043307E0BB7B03F090
:10346C007F0310331B017A6813440433BB60BB7BAE
:10347C0019467868FEF7B4F80346002B03D0BB68F6
:10348C0001221A6002E0BB6800221A60BB680222AB
:10349C0019467868FEF794F905E03968786800F009
:1034AC009EFA00E000BF00BFFB7B18461037BD46FC
:1034BC0080BD000080B584B000AF786039603B6897
:1034CC005B881B0A9BB2013B062B00F2C98001A250
:1034DC0052F823F0FD340008153500085535000866
:1034EC006D3600086D360008193600083F360008A6
:1034FC007B68D3F810321B687A68127C07F10A01DA
:10350C0010469847F860B0E07B681B7C002B0DD10F
:10351C007B68D3F814329B6A07F10A02104698476D
:10352C00F860FB68013302221A709EE07B68D3F8C6
:10353C001432DB6A07F10A0210469847F860FB6800
:10354C00013302221A7090E03B685B88DBB2052BDA
:10355C0056D801A252F823F07D35000895350008A5
:10356C00AD350008C5350008DD350008F535000817
:10357C007B68D3F810325B687A68127C07F10A0119
:10358C0010469847F86040E07B68D3F810329B688F
:10359C007A68127C07F10A0110469847F86034E00B
:1035AC007B68D3F81032DB687A68127C07F10A0169
:1035BC0010469847F86028E07B68D3F810321B69F6
:1035CC007A68127C07F10A0110469847F8601CE0F3
:1035DC007B68D3F810325B697A68127C07F10A01B8
:1035EC0010469847F86010E07B68D3F810329B695E
:1035FC007A68127C07F10A0110469847F86004E0DB
:10360C003968786800F0EBF944E02EE07B681B7CAD
:10361C00002B09D17B68D3F814325B6B07F10A02DB
:10362C0010469847F86020E03968786800F0D7F9C0
:10363C0030E07B681B7C002B0DD17B68D3F81432F7
:10364C001B6B07F10A0210469847F860FB680133C0
:10365C0007221A7009E03968786800F0C0F919E09F
:10366C003968786800F0BBF914E07B89002B11D025
:10367C003B68DB88002B0DD03B68DA887B89934252
:10368C0028BF13469BB27B817B891A46F968786800
:10369C00FEF796F81037BD4680BD00BF80B584B0EC
:1036AC0000AF786039603B689B88002B2CD13B685D
:1036BC00DB88002B28D13B685B88DBB203F07F03EF
:1036CC00FB737B6893F8FC31032B04D13968786861
:1036DC0000F085F91CE07B68FA7B83F8FE21FB7B0C
:1036EC0019467868FDF7A2FF7868FEF7C7F8FB7BF0
:1036FC00002B04D07B68022283F8FC2108E07B6855
:10370C00012283F8FC2103E03968786800F067F93E
:10371C0000BF1037BD4680BD80B582B000AF786069
:10372C0039603B685B88DAB23E4B1A703D4B1B78B4
:10373C00012B04D93968786800F051F96FE07B6887
:10374C0093F8FC31022B02D0032B23D062E0354BD3
:10375C001B78002B1AD0334B1B781A467B685A60A7
:10376C007B68032283F8FC212E4B1B781946786862
:10377C00FCF724FE0346022B04D13968786800F06C
:10378C002EF94CE07868FEF779F848E07868FEF797
:10379C0075F844E0234B1B78002B12D17B68022276
:1037AC0083F8FC211F4B1B781A467B685A601D4B13
:1037BC001B7819467868FCF720FE7868FEF75EF8EF
:1037CC002DE0184B1B781A467B685B689A421DD01B
:1037DC007B685B68DBB219467868FCF70EFE114B10
:1037EC001B781A467B685A600E4B1B781946786812
:1037FC00FCF7E4FD0346022B04D13968786800F02D
:10380C00EEF80CE07868FEF739F808E07868FEF717
:10381C0035F804E03968786800F0E1F800BF083743
:10382C00BD4680BD5408002080B582B000AF7860E2
:10383C0039603B68DB88012B04D03968786800F06C
:10384C00CEF81FE07B6893F8FC31022B02D0032BDF
:10385C000BD012E07B6800229A607B68083301224F
:10386C0019467868FDF7ACFF0CE07B680433012245
:10387C0019467868FDF7A4FF04E03968786800F011
:10388C00AEF800BF00BF0837BD4680BD80B582B022
:10389C0000AF786039607B6893F8FC31023B012BF8
:1038AC0015D87B680122DA607B68D3F80432002BD0
:1038BC0005D07B68DB6843F002027B68DA607B68CA
:1038CC000C33022219467868FDF77AFF04E0396858
:1038DC00786800F084F800BF00BF0837BD4680BD93
:1038EC0080B582B000AF786039603B685B88012B93
:1038FC000DD17B680122C3F804227B68D3F8143203
:10390C009B683968786898477868FDF7B7FF00BFFF
:10391C000837BD4680BD80B582B000AF7860396095
:10392C007B6893F8FC31023B012B12D83B685B8817
:10393C00012B13D17B680022C3F804227B68D3F8D7
:10394C0014329B683968786898477868FDF796FF59
:10395C0004E03968786800F042F800E000BF00BF6E
:10396C000837BD4680BD80B483B000AF7860396045
:10397C003B681A787B681A703B685A787B685A7077
:10398C003B6802331B789AB23B6803331B789BB2BB
:10399C001B029BB213449AB27B685A803B68043377
:1039AC001B789AB23B6805331B789BB21B029BB207
:1039BC0013449AB27B689A803B6806331B789AB2A0
:1039CC003B6807331B789BB21B029BB213449AB221
:1039DC007B68DA8000BF0C37BD4680BC704780B571
:1039EC0082B000AF7860396080217868FDF78CFD7B
:1039FC0000217868FDF788FD00BF0837BD4680BD03
:103A0C0080B586B000AFF860B9607A600023FB75B2
:103A1C00FB68002B33D0F86800F035F8034601330F
:103A2C009BB25B009AB27B681A807B681A88FB7D1C
:103A3C00591CF9751946BB680B44D2B21A70FB7D40
:103A4C005A1CFA751A46BB68134403221A7012E00A
:103A5C00FB685A1CFA60FA7D511CF9751146BA685C
:103A6C000A441B781370FB7D5A1CFA751A46BB6806
:103A7C00134400221A70FB681B78002BE8D100BF9E
:103A8C001837BD4680BD80B485B000AF7860002388
:103A9C00FB7305E0FB7B0133FB737B6801337B60BD
:103AAC007B681B78002BF5D1FB7B18461437BD4681
:103ABC0080BC704780B483B000AF7860396000235D
:103ACC0018460C37BD4680BC7047000080B584B0EA
:103ADC0000AF786039600023FB733B685B78013B77
:103AEC000A2B23D801A252F823F000BF253B000873
:103AFC00433B0008433B0008393B0008393B0008B6
:103B0C00393B0008393B0008393B00082F3B0008C3
:103B1C00433B0008433B00083968786800F012F812
:103B2C000AE03968786800F035F805E0396878689B
:103B3C00FFF755FF00E000BFFB7B18461037BD4672
:103B4C0080BD00BF80B582B000AF786039603B6843
:103B5C005B8840F20132934206D0B3F5417F0BD122
:103B6C000A4B05221A700CE0084B06221A703B68AF
:103B7C005A88074B1A8004E039687868FFF72FFFE2
:103B8C0000BF00BF0837BD4680BD00BFD512002066
:103B9C009012002080B582B000AF786039603B682D
:103BAC005B8840F20332934208D040F205329342D4
:103BBC0008D040F2023293420DD007E0084B0122AC
:103BCC001A7009E0064B07221A7005E0396878680C
:103BDC00FFF705FF00E000BF00BF0837BD4680BD02
:103BEC00D512002080B483B000AF78603960002318
:103BFC0018460C37BD4680BC7047000080B500AF3E
:103C0C00002206490648FCF77FFB06490448FCF7EE
:103C1C00A6FB0348FCF7BCFB00BF80BD30040020B2
:103C2C004C1000206804002080B483B000AF786092
:103C3C0000BF0C37BD4680BC704780B483B000AF6A
:103C4C00786000BF0C37BD4680BC704784B080B430
:103C5C0083B000AF786007F1140080E80E000023F9
:103C6C0018460C37BD4680BC04B0704780B485B094
:103C7C0000AF78600023FB604FF43F43FB607B6830
:103C8C00B3F840309AB2FB689BB213439AB27B688C
:103C9C00A3F84020002318461437BD4680BC70475B
:103CAC0080B485B000AF78600023FB604FF43D43D7
:103CBC00FB607B68B3F840309AB2FB689BB2DB4385
:103CCC009BB213409AB27B68A3F84020002318469D
:103CDC001437BD4680BC704780B483B000AF7860A9
:103CEC000B46FB70002318460C37BD4680BC704752
:103CFC0084B080B582B000AF786007F1140080E822
:103D0C000E007B680122A3F840207B680022A3F8F8
:103D1C0040207B680022A3F844207B680022A3F893
:103D2C0050207868FFF7A2FF002318460837BD46DD
:103D3C00BDE8804004B0704790B484B000AF7860A8
:103D4C0039603B68DB78032B5FD801A252F823F073
:103D5C006D3D0008EB3D0008993D0008BF3D000893
:103D6C007A683B681B789B0013441B889BB223F436
:103D7C00EC4323F070039AB279683B681B789B0084
:103D8C000B4442F4007292B21A803FE07A683B68AE
:103D9C001B789B0013441B889BB279683A68127895
:103DAC0092000A4423F4EC4323F070039BB213807B
:103DBC002CE07A683B681B789B0013441B889BB2F1
:103DCC0023F4EC4323F070039AB279683B681B78B8
:103DDC009B000B4442F4C06292B21A8016E07A68DF
:103DEC003B681B789B0013441B889BB223F4EC4369
:103DFC0023F070039AB279683B681B789B000B44E4
:103E0C0042F4806292B21A8000E000BF7A683B688C
:103E1C001B789B0013441B889AB240F60F73134017
:103E2C009AB23B681B789BB2134399B27A683B6891
:103E3C001B789B001A44754B0B439BB213803B6859
:103E4C009B7A002B40F0E8803B685B78002B4CD0D1
:103E5C003B689B885B089BB259007B68B3F8503079
:103E6C009BB21A463B681B78DB0013445A007B68F4
:103E7C00134403F580630A461A607A683B681B7822
:103E8C009B0013441B889BB203F04003002B13D000
:103E9C007A683B681B789B0013441B889AB240F6E7
:103EAC000F73134099B27A683B681B789B001A44D5
:103EBC00574B0B439BB213807A683B681B789B0073
:103ECC0013441B889BB223F4E04323F040039CB2C1
:103EDC0084F020039CB27A683B681B789B001A44E0
:103EEC004A4B23439BB21380D9E13B689B885B0808
:103EFC009BB259007B68B3F850309BB21A463B68B2
:103F0C001B78DB00134404335A007B68134403F51D
:103F1C0080630A461A607B68B3F850309BB21A462D
:103F2C003B681B78DB00134406335A007B68134450
:103F3C0003F58063BB603B681B693E2B18D93B685B
:103F4C001B695B09FB813B681B6903F01F03002B9A
:103F5C0002D1FB89013BFB81FB899B029BB26FEA7F
:103F6C0043436FEA53439BB21A46BB681A6012E094
:103F7C003B681B695B08FB813B681B6903F0010311
:103F8C00002B02D0FB890133FB81FB899B029BB286
:103F9C001A46BB681A607A683B681B789B0013440E
:103FAC001B889BB203F48043002B13D07A683B68C8
:103FBC001B789B0013441B889AB240F60F73134076
:103FCC0099B27A683B681B789B001A44114B0B43DF
:103FDC009BB213807A683B681B789B0013441B8848
:103FEC009BB223F4804323F070039CB284F480537F
:103FFC009CB284F400539CB27A683B681B789B009B
:10400C001A44024B23439BB2138048E18080FFFF8C
:10401C00C080FFFF80C0FFFF7A683B681B789B0065
:10402C0013441B889AB240F60F63134099B27A6816
:10403C003B681B789B001A449C4B0B439BB2138030
:10404C003B68DB885B089BB259007B68B3F8503047
:10405C009BB21A463B681B78DB0013445A007B6802
:10406C00134403F580630A461A603B681B895B089E
:10407C009BB259007B68B3F850309BB21A463B6830
:10408C001B78DB00134404335A007B68134403F59C
:10409C0080630A461A603B685B78002B40F0838093
:1040AC007A683B681B789B0013441B889BB203F413
:1040BC008043002B13D07A683B681B789B00134419
:1040CC001B889AB240F60F73134099B27A683B681A
:1040DC001B789B001A44764B0B439BB213807A6877
:1040EC003B681B789B0013441B889BB203F0400376
:1040FC00002B13D07A683B681B789B0013441B88F9
:10410C009AB240F60F73134099B27A683B681B78E9
:10411C009B001A44674B0B439BB213807A683B6835
:10412C001B789B0013441B889AB240F60F73134004
:10413C0099B27A683B681B789B001A445D4B0B4321
:10414C009BB213807A683B681B789B0013441B88D6
:10415C009BB223F4804323F070039CB284F480530D
:10416C009CB284F400539CB27A683B681B789B0029
:10417C001A44514B23439BB213807A683B681B78DB
:10418C009B0013441B889BB223F4E04323F04003B1
:10419C009CB27A683B681B789B001A44464B2343BD
:1041AC009BB213807BE07A683B681B789B001344BE
:1041BC001B889BB203F48043002B13D07A683B68B6
:1041CC001B789B0013441B889AB240F60F73134064
:1041DC0099B27A683B681B789B001A44344B0B43AA
:1041EC009BB213807A683B681B789B0013441B8836
:1041FC009BB203F04003002B13D07A683B681B780A
:10420C009B0013441B889AB240F60F73134099B26B
:10421C007A683B681B789B001A44264B0B439BB275
:10422C0013807A683B681B789B0013441B889AB2F6
:10423C0040F60F73134099B27A683B681B789B0069
:10424C001A441B4B0B439BB213807A683B681B7858
:10425C009B0013441B889BB223F4E04323F04003E0
:10426C009CB27A683B681B789B001A44124B234320
:10427C009BB213807A683B681B789B0013441B88A5
:10428C009BB223F4804323F070039CB27A683B68A2
:10429C001B789B001A44084B23439BB213800023CA
:1042AC0018461037BD4690BC704700BF8081FFFF99
:1042BC0080C0FFFFC080FFFF8080FFFF90B482B002
:1042CC0000AF786039603B689B7A002B6DD13B68FE
:1042DC005B78002B34D07A683B681B789B001344C6
:1042EC001B889BB203F04003002B13D07A683B6809
:1042FC001B789B0013441B889AB240F60F73134033
:10430C0099B27A683B681B789B001A44684B0B4344
:10431C009BB213807A683B681B789B0013441B8804
:10432C009BB223F4E04323F040039CB27A683B68D1
:10433C001B789B001A445F4B23439BB2138039E1DB
:10434C007A683B681B789B0013441B889BB203F470
:10435C008043002B13D07A683B681B789B00134476
:10436C001B889AB240F60F73134099B27A683B6877
:10437C001B789B001A44504B0B439BB213807A68FA
:10438C003B681B789B0013441B889BB223F480432F
:10439C0023F070039CB27A683B681B789B001A442C
:1043AC00444B23439BB2138004E13B685B78002BA6
:1043BC0040F084807A683B681B789B0013441B8810
:1043CC009BB203F48043002B13D07A683B681B78B4
:1043DC009B0013441B889AB240F60F73134099B29A
:1043EC007A683B681B789B001A44334B0B439BB297
:1043FC0013807A683B681B789B0013441B889BB224
:10440C0003F04003002B13D07A683B681B789B00A9
:10441C0013441B889AB240F60F73134099B27A6812
:10442C003B681B789B001A44214B0B439BB21380B7
:10443C007A683B681B789B0013441B889AB240F641
:10444C000F73134099B27A683B681B789B001A442F
:10445C00174B0B439BB213807A683B681B789B000D
:10446C0013441B889BB223F4804323F070039CB24B
:10447C007A683B681B789B001A440E4B23439BB213
:10448C0013807A683B681B789B0013441B889BB293
:10449C0023F4E04323F040039CB27A683B681B781A
:1044AC009B001A44034B23439BB2138082E000BF52
:1044BC00C080FFFF8080FFFF80C0FFFF7A683B68F1
:1044CC001B789B0013441B889BB203F48043002B86
:1044DC0013D07A683B681B789B0013441B889AB2F4
:1044EC0040F60F73134099B27A683B681B789B00B7
:1044FC001A44334B0B439BB213807A683B681B788E
:10450C009B0013441B889BB203F04003002B13D079
:10451C007A683B681B789B0013441B889AB240F660
:10452C000F73134099B27A683B681B789B001A444E
:10453C00244B0B439BB213807A683B681B789B001F
:10454C0013441B889AB240F60F73134099B27A68E1
:10455C003B681B789B001A44194B0B439BB213808E
:10456C007A683B681B789B0013441B889BB223F42E
:10457C00E04323F040039CB27A683B681B789B00B5
:10458C001A44114B23439BB213807A683B681B7807
:10459C009B0013441B889BB223F4804323F07003CD
:1045AC009CB27A683B681B789B001A44064B2343E9
:1045BC009BB21380002318460837BD4690BC704749
:1045CC0080C0FFFFC080FFFF8080FFFF90B58DB0E3
:1045DC0000AF786039600023FB853B689B69BB6248
:1045EC003B685B78012B40F049813B689A693B68DA
:1045FC001B699A4209D93B681B69BB623B689A6983
:10460C00BB6AD21A3B689A6105E03B689B69BB6246
:10461C003B6800229A613B689B7A002B1BD13B685C
:10462C0059693B689A88BB6A9BB2786800F07DFB3D
:10463C007B68B3F850309BB21A463B681B78DB00A2
:10464C00134402335A007B68134403F580631A4603
:10465C00BB6A1360F6E07A683B681B789B001344D6
:10466C001B889BB203F04003002B59D03B685B784E
:10467C00002B3BD17B68B3F850309BB21A463B6899
:10468C001B78DB00134406335A007B68134403F594
:10469C008063BB60BB6A3E2B16D9BB6A5B09FB848B
:1046AC00BB6A03F01F03002B02D1FB8C013BFB8484
:1046BC00FB8C9B029BB26FEA43436FEA53439BB262
:1046CC001A46BB681A6027E0BB6A5B08FB84BB6AAE
:1046DC0003F00103002B02D0FB8C0133FB84FB8C19
:1046EC009B029BB21A46BB681A6015E03B685B786C
:1046FC00012B11D17B68B3F850309BB21A463B6842
:10470C001B78DB00134402335A007B68134403F517
:10471C0080631A46BB6A13603B681B89FB8558E0B3
:10472C003B685B78002B3BD17B68B3F850309BB275
:10473C001A463B681B78DB00134402335A007B6833
:10474C00134403F58063FB60BB6A3E2B16D9BB6A2E
:10475C005B09BB84BB6A03F01F03002B02D1BB8C2B
:10476C00013BBB84BB8C9B029BB26FEA43436FEA59
:10477C0053439BB21A46FB681A6027E0BB6A5B087E
:10478C00BB84BB6A03F00103002B02D0BB8C01334A
:10479C00BB84BB8C9B029BB21A46FB681A6015E06B
:1047AC003B685B78012B11D17B68B3F850309BB21E
:1047BC001A463B681B78DB00134402335A007B68B3
:1047CC00134403F580631A46BB6A13603B68DB88AD
:1047DC00FB853B685969BB6A9BB2FA8D786800F01F
:1047EC00A4FA3B685B78002B14D17A683B681B7881
:1047FC009B0013441B889AB240F60F73134099B276
:10480C007A683B681B789B001A44924B0B439BB213
:10481C00138017E03B685B78012B13D17A683B68F7
:10482C001B789B0013441B889AB240F60F731340FD
:10483C0099B27A683B681B789B001A44864B0B43F1
:10484C009BB213807A683B681B789B0013441B88CF
:10485C009BB223F4E04323F040039CB284F010039A
:10486C009CB284F020039CB27A683B681B789B0056
:10487C001A447A4B23439BB2138022E13B689A691A
:10488C003B681B699A4209D93B681B69BB623B6850
:10489C009A69BB6AD21A3B689A6105E03B689B69CE
:1048AC00BB623B6800229A613B689B7A002B3BD130
:1048BC007B68B3F850309BB21A463B681B78DB0020
:1048CC00134406335A007B68134403F580633B6141
:1048DC00BB6A3E2B16D9BB6A5B097B84BB6A03F0AF
:1048EC001F03002B02D17B8C013B7B847B8C9B02B6
:1048FC009BB26FEA43436FEA53439BB21A463B6940
:10490C001A60C3E0BB6A5B087B84BB6A03F00103DB
:10491C00002B02D07B8C01337B847B8C9B029BB263
:10492C001A463B691A60B1E03B685B78002B3BD1BF
:10493C007B68B3F850309BB21A463B681B78DB009F
:10494C00134402335A007B68134403F58063BB6144
:10495C00BB6A3E2B16D9BB6A5B093B84BB6A03F06E
:10496C001F03002B02D13B8C013B3B843B8C9B02F5
:10497C009BB26FEA43436FEA53439BB21A46BB693F
:10498C001A6027E0BB6A5B083B84BB6A03F0010337
:10499C00002B02D03B8C01333B843B8C9B029BB2A3
:1049AC001A46BB691A6015E03B685B78012B11D184
:1049BC007B68B3F850309BB21A463B681B78DB001F
:1049CC00134402335A007B68134403F580631A4680
:1049DC00BB6A13603B685B78002B41D17B68B3F8F2
:1049EC0050309BB21A463B681B78DB0013440633ED
:1049FC005A007B68134403F580637B61BB6A3E2BD2
:104A0C0016D9BB6A5B09FB83BB6A03F01F03002B3F
:104A1C0002D1FB8B013BFB83FB8B9B029BB26FEAAE
:104A2C0043436FEA53439BB21A467B691A602DE0ED
:104A3C00BB6A5B08FB83BB6A03F00103002B02D04B
:104A4C00FB8B0133FB83FB8B9B029BB21A467B696E
:104A5C001A601BE0C080FFFF80C0FFFF8080FFFF5B
:104A6C003B685B78012B11D17B68B3F850309BB25B
:104A7C001A463B681B78DB00134402335A007B68F0
:104A8C00134403F580631A46BB6A13607A683B686B
:104A9C001B789B0013441B889BB223F4804323F0A8
:104AAC0070039CB284F480539CB284F400539CB287
:104ABC007A683B681B789B001A44044B23439BB2D7
:104ACC001380002318463437BD4690BD8080FFFF0D
:104ADC0090B482B000AF786039603B681B78002BD3
:104AEC0018D17A683B681B789B0013441B889BB2D7
:104AFC004BF6BF741C4084F4805484F01004A1B2B3
:104B0C007A683B681B789B001A44204B0B439BB282
:104B1C00138034E03B685B78002B18D07A683B68D4
:104B2C001B789B0013441B889BB223F4E04323F0B7
:104B3C0040039CB284F010039CB27A683B681B78EB
:104B4C009B001A44114B23439BB2138017E07A68E5
:104B5C003B681B789B0013441B889BB223F4804357
:104B6C0023F070039CB284F480539CB27A683B6847
:104B7C001B789B001A44054B23439BB213800023E4
:104B8C0018460837BD4690BC704700BF8080FFFFB9
:104B9C0090B482B000AF786039603B685B78002BD2
:104BAC003AD07A683B681B789B0013441B889BB2F5
:104BBC0003F04003002B13D07A683B681B789B00F2
:104BCC0013441B889AB240F60F73134099B27A685B
:104BDC003B681B789B001A442F4B0B439BB21380F2
:104BEC007A683B681B789B0013441B889BB223F4A8
:104BFC00E04323F040039CB284F010039CB284F099
:104C0C0020039CB27A683B681B789B001A44234BA8
:104C1C0023439BB2138039E07A683B681B789B0076
:104C2C0013441B889BB203F48043002B13D07A6887
:104C3C003B681B789B0013441B889AB240F60F7399
:104C4C00134099B27A683B681B789B001A44144B4A
:104C5C000B439BB213807A683B681B789B00134410
:104C6C001B889BB223F4804323F070039CB284F422
:104C7C0080539CB284F400539CB27A683B681B78D6
:104C8C009B001A44054B23439BB213800023184608
:104C9C000837BD4690BC7047C080FFFF8080FFFF87
:104CAC0080C0FFFF80B483B000AF78600B46FB7010
:104CBC00FB78002B03D17B688022A3F84C200023C7
:104CCC0018460C37BD4680BC704780B483B000AF2B
:104CDC007860002318460C37BD4680BC704780B402
:104CEC0083B000AF7860002318460C37BD4680BCFB
:104CFC00704780B485B000AF78600023FB607B68A0
:104D0C00B3F844309BB2FB60FB6818461437BD46C1
:104D1C0080BC704780B483B000AF786039600023EA
:104D2C0018460C37BD4680BC704780B48BB000AFC2
:104D3C00F860B96011461A460B46FB801346BB80DF
:104D4C00BB8801335B10FB6100237B620023BB61DA
:104D5C0000237B6100233B62FB885B001A46FB68E7
:104D6C00134403F580633B62FB697B621BE0BB6809
:104D7C001B78BB61BB680133BB60BB681B781B0233
:104D8C001A46BB6913437B613B6A9A1C3A627A6987
:104D9C0092B21A803B6A02333B62BB680133BB6040
:104DAC007B6A013B7B627B6A002BE0D100BF2C3716
:104DBC00BD4680BC704780B489B000AFF860B96064
:104DCC0011461A460B46FB801346BB80BB88013349
:104DDC005B107B610023FB610023BB61FB885B00E4
:104DEC001A46FB68134403F58063BB617B69FB6166
:104DFC000EE0BB691A1DBA611968BB685A1CBA600F
:104E0C008AB21A80BB680133BB60FB69013BFB6152
:104E1C00FB69002BEDD100BF2437BD4680BC704729
:104E2C0080B485B000AF78607B6803F00703FB604B
:104E3C000C4BDB68BB60BA684FF6FF031340BB60DA
:104E4C00FB681A02BB68134343F0BF6343F400339F
:104E5C00BB60044ABB68D36000BF1437BD4680BC3E
:104E6C00704700BF00ED00E080B400AF044BDB687E
:104E7C001B0A03F007031846BD4680BC704700BFF1
:104E8C0000ED00E080B483B000AF0346FB71FB790A
:104E9C0003F01F02064997F907305B09012000FA5D
:104EAC0002F241F8232000BF0C37BD4680BC70478E
:104EBC0000E100E080B483B000AF0346FB71FB79E6
:104ECC0003F01F02074997F907305B09012000FA2C
:104EDC0002F2203341F8232000BF0C37BD4680BCC2
:104EEC00704700BF00E100E080B483B000AF034620
:104EFC003960FB7197F90730002B0BDA3B68DAB29B
:104F0C000C49FB7903F00F03043B1201D2B20B44A2
:104F1C001A7609E03B68DAB2074997F907301201B3
:104F2C00D2B20B4483F8002300BF0C37BD4680BCC3
:104F3C00704700BF00ED00E000E100E080B489B0F4
:104F4C0000AFF860B9607A60FB6803F00703FB619F
:104F5C00FB69C3F10703042B28BF0423BB61FB6966
:104F6C000433062B02D9FB69033B00E000237B6171
:104F7C004FF0FF32BB6902FA03F3DA43BB681A4005
:104F8C007B699A404FF0FF317B6901FA03F3D943F7
:104F9C007B680B40134318462437BD4680BC7047D2
:104FAC0080B582B000AF78607B68013BB3F1807F45
:104FBC0001D301230FE00A4A7B68013B53600F21A8
:104FCC004FF0FF30FFF790FF054B00229A60044B27
:104FDC0007221A60002318460837BD4680BD00BF63
:104FEC0010E000E080B582B000AF78607868FFF721
:104FFC0017FF00BF0837BD4680BD80B586B000AF37
:10500C000346B9607A60FB7300237B61FFF72CFFCA
:10501C0078617A68B9687869FFF790FF024697F96A
:10502C000F3011461846FFF75FFF00BF1837BD461B
:10503C0080BD80B582B000AF0346FB7197F9073095
:10504C001846FFF71FFF00BF0837BD4680BD80B56F
:10505C0082B000AF0346FB7197F907301846FFF793
:10506C0029FF00BF0837BD4680BD80B582B000AFB8
:10507C0078607868FFF794FF034618460837BD46FA
:10508C0080BD000080B483B000AF78607B68042BD7
:10509C0006D1094B1B68084A43F00403136005E072
:1050AC00054B1B68044A23F00403136000BF0C3744
:1050BC00BD4680BC704700BF10E000E080B500AF7B
:1050CC00FCF79FFD00BF80BD80B586B000AF786057
:1050DC0000233B617B681B6803F00103002B00F08D
:1050EC008780924B5B6803F00C03042B0CD08F4B26
:1050FC005B6803F00C03082B12D18C4B5B6803F438
:10510C008033B3F5803F0BD1884B1B6803F400331D
:10511C00002B6CD07B685B68002B68D101232DE2DF
:10512C007B685B68B3F5803F06D1804B1B687F4A78
:10513C0043F4803313602EE07B685B68002B0CD14A
:10514C007A4B1B68794A23F480331360774B1B68C6
:10515C00764A23F4802313601DE07B685B68B3F50B
:10516C00A02F0CD1714B1B68704A43F48023136041
:10517C006E4B1B686D4A43F4803313600BE06B4B32
:10518C001B686A4A23F480331360684B1B68674AB8
:10519C0023F4802313607B685B68002B13D0FDF72E
:1051AC00C7FD386108E0FDF7C3FD02463B69D31A21
:1051BC00642B01D90323E1E15C4B1B6803F400333E
:1051CC00002BF0D014E0FDF7B3FD386108E0FDF7DB
:1051DC00AFFD02463B69D31A642B01D90323CDE101
:1051EC00524B1B6803F40033002BF0D100E000BFDE
:1051FC007B681B6803F00203002B63D04B4B5B688E
:10520C0003F00C03002B0BD0484B5B6803F00C0332
:10521C00082B1CD1454B5B6803F48033002B16D153
:10522C00424B1B6803F00203002B05D07B681B6903
:10523C00012B01D00123A1E13C4B1B6823F0F802A8
:10524C007B685B69DB00394913430B603AE07B6890
:10525C001B69002B20D0364B01221A60FDF768FD2C
:10526C00386108E0FDF764FD02463B69D31A022B56
:10527C0001D9032382E12D4B1B6803F00203002BA1
:10528C00F0D02A4B1B6823F0F8027B685B69DB00CB
:10529C00264913430B6015E0254B00221A60FDF7DD
:1052AC0047FD386108E0FDF743FD02463B69D31A20
:1052BC00022B01D9032361E11C4B1B6803F0020391
:1052CC00002BF0D17B681B6803F00803002B39D04E
:1052DC007B689B69002B19D0164B01221A60FDF7D5
:1052EC0027FD386108E0FDF723FD02463B69D31A20
:1052FC00022B01D9032341E10C4B5B6A03F002033F
:10530C00002BF0D0012000F0CBFA1BE0094B00225F
:10531C001A60FDF70DFD38610EE0FDF709FD024640
:10532C003B69D31A022B07D9032327E10010024053
:10533C000000424280044242924B5B6A03F002033B
:10534C00002BEAD17B681B6803F00403002B00F0F0
:10535C00A6800023FB758B4BDB6903F08053002B7D
:10536C000DD1884BDB69874A43F08053D361854B61
:10537C00DB6903F08053FB60FB680123FB75824BF8
:10538C001B6803F48073002B18D17F4B1B687E4A7B
:10539C0043F480731360FDF7CBFC386108E0FDF734
:1053AC00C7FC02463B69D31A642B01D90323E5E001
:1053BC00754B1B6803F48073002BF0D07B68DB68A3
:1053CC00012B06D16F4B1B6A6E4A43F0010313622B
:1053DC002DE07B68DB68002B0CD16A4B1B6A694A99
:1053EC0023F001031362674B1B6A664A23F0040324
:1053FC0013621CE07B68DB68052B0CD1614B1B6ACC
:10540C00604A43F0040313625E4B1B6A5D4A43F02F
:10541C00010313620BE05B4B1B6A5A4A23F0010336
:10542C001362584B1B6A574A23F0040313627B68C0
:10543C00DB68002B15D0FDF77BFC38610AE0FDF72B
:10544C0077FC02463B69D31A41F28832934201D968
:10545C00032393E04B4B1B6A03F00203002BEED0AB
:10546C0014E0FDF765FC38610AE0FDF761FC0246CB
:10547C003B69D31A41F28832934201D903237DE070
:10548C00404B1B6A03F00203002BEED1FB7D012B7A
:10549C0005D13C4BDB693B4A23F08053D3617B68DD
:1054AC00DB69002B69D0374B5B6803F00C03082BCE
:1054BC0061D07B68DB69022B46D1344B00221A6029
:1054CC00FDF736FC386108E0FDF732FC02463B691B
:1054DC00D31A022B01D9032350E02A4B1B6803F08B
:1054EC000073002BF0D17B681B6AB3F5803F08D1A9
:1054FC00244B5B6823F400327B689B68214913437F
:10550C004B60204B5B6823F474127B68196A7B68D0
:10551C005B6A0B431B4913434B601C4B01221A6003
:10552C00FDF706FC386108E0FDF702FC02463B691A
:10553C00D31A022B01D9032320E0124B1B6803F072
:10554C000073002BF0D018E0104B00221A60FDF70E
:10555C00EFFB386108E0FDF7EBFB02463B69D31A21
:10556C00022B01D9032309E0064B1B6803F00073DF
:10557C00002BF0D101E0012300E00023184618377E
:10558C00BD4680BD001002400070004060004242E9
:10559C0080B584B000AF786039600023FB60724B3B
:1055AC001B6803F007033A689A4210D96E4B1B68CC
:1055BC0023F007026C493B6813430B606A4B1B6872
:1055CC0003F007033A689A4201D00123C8E07B68D4
:1055DC001B6803F00203002B08D0644B5B6823F0BC
:1055EC00F0027B689B68614913434B607B681B68C6
:1055FC0003F00103002B6AD07B685B68012B07D199
:10560C005A4B1B6803F40033002B15D10123A7E080
:10561C007B685B68022B07D1544B1B6803F000734B
:10562C00002B09D101239BE0504B1B6803F00203B4
:10563C00002B01D1012393E04C4B5B6823F0030258
:10564C007B685B68494913434B60FDF771FBF8605D
:10565C007B685B68012B12D10AE0FDF769FB0246FF
:10566C00FB68D31A41F28832934201D9032377E0C5
:10567C003E4B5B6803F00C03042BEED127E07B68F8
:10568C005B68022B1DD10AE0FDF752FB0246FB685A
:10569C00D31A41F28832934201D9032360E0334B91
:1056AC005B6803F00C03082BEED110E0FDF740FB18
:1056BC000246FB68D31A41F28832934201D9032384
:1056CC004EE02A4B5B6803F00C03002BEED1264B0B
:1056DC001B6803F007033A689A4210D2224B1B68EE
:1056EC0023F0070220493B6813430B601E4B1B68D9
:1056FC0003F007033A689A4201D0012330E07B683B
:10570C001B6803F00403002B08D0184B5B6823F4D0
:10571C00E0627B68DB68154913434B607B681B6850
:10572C0003F00803002B09D0104B5B6823F4605284
:10573C007B681B69DB000D4913434B6000F01CF8C0
:10574C0001460A4B5B681B0903F00F03084AD35C44
:10575C0021FA03F3074A13600020FDF7BFFA002378
:10576C0018461037BD4680BD002002400010024094
:10577C00F88600086404002090B48AB000AF2A4B6D
:10578C003C1D0FCB84E80F00284B1B883B8000236B
:10579C00FB610023BB6100237B6200237B61002340
:1057AC003B62234B5B68FB61FB6903F00C03042B2E
:1057BC0002D0082B03D02DE01E4B3B622DE0FB6981
:1057CC009B0C03F00F0307F12802134413F8243C3D
:1057DC007B61FB6903F48033002B13D0144B5B68A3
:1057EC005B0C03F0010307F12802134413F8283C67
:1057FC00BB61104ABB69B2FBF3F27B6902FB03F39A
:10580C007B6204E07B690C4A02FB03F37B627B6ADC
:10581C003B6202E0074B3B6200BF3B6A18462837ED
:10582C00BD4690BC704700BFA0860008B08600083B
:10583C000010024000127A0000093D0080B400AF55
:10584C00024B1B681846BD4680BC704764040020A0
:10585C0080B500AFFFF7F2FF0146054B5B681B0AF2
:10586C0003F00703034AD35C21FA03F3184680BD07
:10587C00001002400887000880B500AFFFF7DEFF7C
:10588C000146054B5B68DB0A03F00703034AD35C54
:10589C0021FA03F3184680BD001002400887000867
:1058AC0080B485B000AF78600A4B1B680A4AA2FB33
:1058BC0003235B0A7A6802FB03F3FB6000BFFB68FF
:1058CC005A1EFA60002BF9D100BF1437BD4680BCBC
:1058DC00704700BF64040020D34D621080B487B0C1
:1058EC0000AFF8607B600B467B8113463B81002345
:1058FC007B617B8903F08003002B08D07B8903F04C
:10590C007F035B012833FA6813447B6106E07B89D3
:10591C005B0103F50A73FA6813447B613B89002B26
:10592C0007D17B6900229A727B689AB27B699A8054
:10593C000BE07B6901229A727B689AB27B69DA80F0
:10594C007B681B0C9AB27B691A81002318461C37A2
:10595C00BD4680BC704780B400AF00BFBD4680BC64
:10596C00704780B400AFFEE780B400AFFEE780B4B0
:10597C0000AFFEE780B400AFFEE780B400AF00BF1D
:10598C00BD4680BC704780B400AF00BFBD4680BC34
:10599C00704780B400AF00BFBD4680BC704780B577
:1059AC0000AFFDF7B7F9FFF789FB00BF80BD000022
:1059BC0080B500AF0248FCF797FA00BF80BD00BF6E
:1059CC004C09002080B500AF0248FAF7C3FF00BFB6
:1059DC0080BD00BFAC0D002080B500AF034B5B6BEE
:1059EC00184601F0B7FF00BF80BD00BFE0120020D9
:1059FC0080B500AF034B1B6B184601F0ABFF00BF2B
:105A0C0080BD00BFE012002080B500AF024801F05D
:105A1C0047FA00BF80BD00BFE012002080B500AF88
:105A2C004FF40040FDF7D2FB00BF80BD80B584B0C1
:105A3C0000AF78600B46FB700023FB73202303221E
:105A4C0081217868FBF7ECFC202303220121786884
:105A5C00FBF7E6FC20230F4A01217868FBF756FE82
:105A6C001020FBF78DFE02467B68C3F818227B687A
:105A7C00D3F81832002B02D10123FB7304E07B68AE
:105A8C00D3F8183200221A73FB7B18461037BD4628
:105A9C0080BD00BF7012002080B582B000AF78606E
:105AAC000B46FB7081217868FBF7F8FC7B68D3F818
:105ABC001832002B09D07B68D3F818321846FBF744
:105ACC006BFE7B680022C3F81822002318460837A7
